:100000000C946B060C94B2060C94B2060C94B206D7
:100010000C94B2060C94B2060C94B2060C94B20680
:100020000C94B2060C94B2060C9465280C9421280A
:100030000C94B2060C94B2060C94B2060C94B20660
:100040000C94B2060C94BB310C94B2060C94B2061C
:100050000C94B2060C94FB310C94B2060C94B206CC
:100060000C94B2060C94B2060C94B2060C94B20630
:100070000C94B2060C94B2060C94B2060C94B20620
:100080000C94B2060C94B2060C94B2060C94B20610
:100090000C94B2060C94B2060C94B2060C94B20600
:1000A0000C94B2060C94B2060C94B2060631FF0909
:1000B00074A1010975150026FF00952075088102BD
:1000C0000976150026FF00952075089102C00501EC
:1000D0000902A10185020901A100050919012905EB
:1000E00015002501950575018102950175038101B2
:1000F0000501093009311581257F950275088106B2
:1001000009381581257F950175088106050C0A3887
:10011000021581257F950175088106C0C00501097A
:1001200080A101850319012AB700150126B70095A2
:100130000175108100C0050C0901A1018504190198
:100140002AA002150126A002950175108100C005A4
:10015000010906A1018505050719E029E715002514
:10016000019508750181020507190029EF15002581
:100170000195F0750181020508190129059505759C
:10018000019102950175039101C00660FF0961A10B
:10019000010962150026FF00952075088102096398
:1001A000150026FF00952075089102C0050109067B
:1001B000A101050719E029E715002501950875013A
:1001C00081029501750881010507190029FF1500B5
:1001D00026FF009506750881000508190129059577
:1001E0000575019102950175039101C000000000A1
:1001F00000000000000000000000000000000000FF
:100200007E0F00D4FFFFFFC7000000780000000051
:10021000000000002A2B2800000000000000000061
:100220000000000000000029000000002C1E342007
:10023000212224342627252E362D3738271E1F202D
:100240002122232425263333362E37381F04050672
:100250000708090A0B0C0D0E0F10111213141516B6
:100260001718191A1B1C1D2F3130232D35040506B4
:100270000708090A0B0C0D0E0F1011121314151696
:100280001718191A1B1C1D2F3130354C30782530AA
:1002900033580A0043616C2062696E2025752C205A
:1002A0005468726573686F6C643D25752041737383
:1002B00069676E6D656E74733A0A0043616C204124
:1002C0006C6C205A65726F203D2025752C2043618F
:1002D0006C20416C6C204F6E6573203D2025750AA3
:1002E0000043616C6962726174696F6E20746F6F34
:1002F0006B3A202575206D730A006861707469631C
:100300005F636F6E6669672E656E61626C65203D26
:100310002025750A006861707469635F636F6E669B
:1003200069672E656E61626C65203D2025750A0047
:100330006861707469635F636F6E6669672E6D6F65
:100340006465203D2025750A006861707469635FEB
:10035000636F6E6669672E666565646261636B20B4
:100360003D2025750A006861707469635F636F6E74
:100370006669672E6D6F6465203D2025750A0068EB
:1003800061707469635F636F6E6669672E616D701B
:100390006C6974756465203D2025750A006861707C
:1003A0007469635F636F6E6669672E6477656C6CF2
:1003B000203D2025750A0064796E616D6963206DAA
:1003C0006163726F3A20736C6F7420256420706CC7
:1003D00061796261636B0A0064796E616D696320A3
:1003E0006D6163726F3A20736C6F742025642073A3
:1003F000617665642C206C656E6774683A202564AC
:100400000A0064796E616D6963206D6163726F3A91
:10041000207472696D6D696E672061207472616904
:100420006C696E67206B65792D646F776E206576D9
:10043000656E740D0A006861707469635F636F6E46
:100440006669672E666565646261636B203D202581
:10045000750A006861707469635F636F6E666967CF
:100460002E62757A7A203D2025750A004B4C3A2081
:100470006B633A203078253034582C20636F6C3A07
:100480002025752C20726F773A2025752C207072EC
:1004900065737365643A2025622C2074696D653A32
:1004A0002025752C20696E746572727570743A20FF
:1004B00025622C20636F756E743A2025750A003A08
:1004C000736D696C65795F737069745F7375727051
:1004D00072697365643A010128003A736D696C654D
:1004E000795F7469705F6665646F72613A010128B3
:1004F000003A736D696C65795F74616B656D6F6EE1
:1005000065793A010128003A64726F6F6C696E6711
:100510005F666163653A010128003A68656172743B
:100520003A010128003A736D696C65795F63617403
:100530005F66616E63793A010128003A736D696CF8
:1005400065795F6361745F7370616E6973683A01A6
:100550000128003A7375727072697365643A01011B
:1005600028003A6F6F663A010128003A746869738F
:100570003A010128000102E201012B0103E20030EF
:1005800030000102E30102E20101290103E201035B
:10059000E3000102E00102E50101290103E5010395
:1005A000E00001013B0102E0760103E00001013BB4
:1005B0000102E061630103E0000102E30102E17373
:1005C0000103E10103E3000102E3650103E300012C
:1005D00002E3640103E3000102E301012B74010360
:1005E000E3000102E30102E00101500103E0010325
:1005F000E3000102E30102E001014F0103E0010316
:10060000E300544553540044454255473A20646939
:100610007361626C65642E0A0044454255473A2076
:10062000656E61626C65642E0A006164645F6B656F
:10063000795F6269743A2063616E27742061646433
:100640003A20253032580A0064656C5F6B65795F2B
:100650006269743A2063616E27742064656C3A2085
:10066000253032580A000A002530325820006B65C8
:1006700079626F6172645F7265706F72743A2000A4
:10068000290A002575002F002575005D28002564C6
:10069000002000256400200025640020002564005F
:1006A0007C0025303258006D6F7573656B6579205D
:1006B0005B62746E7C782079207620685D28726594
:1006C000702F61636C293A205B000000000000007D
:1006D0000000000000010204060A0F17202C3A4A0D
:1006E0005D71879DB3C7DAE9F5FCFFFCF5E9DAC770
:1006F000B39D87715D4A3A2C20170F0A0604020148
:100700000000000000000000000020444F4E450A99
:10071000006461635F696E697428290020444F4E4C
:10072000450A0073686966745F696E6974282900F8
:100730006861707469635F636F6E6669672E6D6F61
:100740006465203D2025640A006861707469635FF8
:10075000636F6E6669672E656E61626C65203D2011
:1007600025640A006861707469635F636F6E66690F
:1007700067206570726F6D0A00536F6C656E6F69EC
:10078000642064726976657220696E697469616C4F
:10079000697A65640A000A002530313662003A2021
:1007A0000025303258000A722F6320303132333442
:1007B00035363738394142434445460A000A002558
:1007C000303258006B6579626F6172645F73657473
:1007D0005F6C65643A20005B735D004B6579626F06
:1007E0006172642073746172742E0A005B435D0051
:1007F0005B445D005B535D005B575D005B525D00D9
:1008000009027B00040100A0FA09040000010301B1
:1008100001000921110100012240000705810308A0
:10082000000A09040100020300000009211101006F
:10083000012222000705820320000107050303208F
:100840000001090402000103000000092111010058
:100850000122BC000705840320000A0904030002EA
:100860000300000009211101000122220007058573
:1008700003200001070505032000011201100100FB
:10088000000008810402000100010203010403309A
:100890000000003A03490042004D0020004D006F67
:1008A00000640065006C00200046002000580054E1
:1008B000002F0042006900670066006F006F00743F
:1008C00000200046005800540061006C00000086C3
:1008D0000354006F006D00200057006F006E00672A
:1008E000002D0043006F0072006E0061006C006C10
:1008F000002F0041006C006500630074006100720D
:100900000064007900390038002F00500075007233
:1009100000640065006100200041006E0064007208
:1009200000650069002F006B006D006E006F00769F
:100930000032003000310037002F006C0069007376
:100940000074006F0066006F007000740069006F33
:10095000006E00730000000403090464796E616D89
:100960006963206D6163726F207265636F72646981
:100970006E673A20737461727465640D0A0064795D
:100980006E616D6963206D6163726F3A20736C6F85
:1009900074202564206C656E6774683A2025642F86
:1009A00025640A0064796E616D6963206D6163720C
:1009B0006F3A2069676E6F72696E672061206C659F
:1009C0006164696E67206B65792D75702065766549
:1009D0006E740D0A0099011E001F002100230024DF
:1009E0000026002D002E002A000153550029003555
:1009F000001A00200022001C0025002700300024DF
:100A00000054005600075D2B001400080017001862
:100A100000120013002F00310025002600065D396A
:100A2000431600070015000D000C003300000021E4
:100A300000220057009601E1000400060009000BA7
:100A4000000E000F00340028001F002300950198BD
:100A50000100001B000A00110036003800E5001EEE
:100A600000200067009701E0001D002A0019000522
:100A700000100037005100520063002A00920191DB
:100A8000010251E20000002C00E600E40050004F9B
:100A900000270058000100010001000100010001D1
:100AA000000100010001000100010001000100013E
:100AB00000010001000100010001000100010049E6
:100AC000000100010001000100010001000100011E
:100AD0000001000100010001004A004B000100017B
:100AE0000001000100010001000100010001004CB3
:100AF000004D0001000100010001000100010001A2
:100B000000010001000100010001004E0001000190
:100B100000010001000100010001000100010001CD
:100B200000010001000100010001000100010001BD
:100B300000010001000100010001000100010001AD
:100B4000000100010001000100010001000100019D
:100B50000001000100015C3A003B003D003F004005
:100B6000004200440045004C0001000100005C29E7
:100B70000001003C003E0001004100430001000173
:100B80000001000100045D010001000100010001FD
:100B900000010001000100010001000100035D01EE
:100BA0000001000100010001000100AA0001000194
:100BB000000100010001000100010001000100012D
:100BC0000001000100A90001000100010001000175
:100BD000000100010001000100AC00AE00010001B5
:100BE00000010001000100E300010001000100011B
:100BF000000100AB0094019301010001000100011C
:100C000000010001000100010001000100920191BA
:100C1000010100010001009C019D019F01A101A2B1
:100C200001A4010100010001000100010001000117
:100C30000001009E01A0010100A301A50101000126
:100C4000000100010001000100010001000100019C
:100C5000000100010001000100010001000100018C
:100C6000000100010001000100010001000100017C
:100C7000000100010001000100010001000100016C
:100C8000000100010001000100010001000100015C
:100C9000000100010001000100010001000100014C
:100CA000000100010001000100010001000100013C
:100CB000000100010001000100010001000100012C
:100CC000000100010001000100010001000100011C
:100CD00000010001000011241FBECFEFDAE0DEBFEB
:100CE000CDBF04B603FE27C080913606909137062B
:100CF000A0913806B09139068730904BA740B04B91
:100D0000D1F41092360610923706109238061092DF
:100D1000390614BE84B7877F84BF0FB6F894A895B0
:100D200080916000886180936000109260000FBE27
:100D3000E0E0F8E3099511E0A0E0B1E0E0E1F6E6DB
:100D400002C005900D92AC38B107D9F726E0ACE8A7
:100D5000B1E001C01D92A633B207E1F70E94B929A4
:100D60000C94BE320C940000FF93EF93E0918C0141
:100D7000F0918D01309709F00995EF91FF91089559
:100D8000FC018591803011F0EFDFFBCF0895FF2744
:100D9000E0E230E247FF0CC0419597FF09C0EDE269
:100DA0006095709580959095611D711D811D911DB7
:100DB00027FF02C0219530E350E2AA27660F771F74
:100DC000881F991FAA1FA41710F0A41B63955A959A
:100DD000A9F7AA3008F0A95FA05DAF93F39561155C
:100DE00071058105910541F7ED3211F4EF93F3950B
:100DF000F21718F43F93F395FBCF8F91B5DFFA9577
:100E0000E1F70895E991F9918591803021F08532DB
:100E100019F0AADFF9CF089520E0E89455915532F2
:100E2000C1F3503311F4689455915A3348F4505338
:100E300090F3220F022E220F220F200D250FF4CF48
:100E40000EF4219589919991533619F3533729F16D
:100E5000533559F1BC0188279927E8945C3621F471
:100E60008991999168945591543639F446EF7EF002
:100E700077FF0DC08FEF9FEF0AC055374AE039F07A
:100E8000583540E121F0523642E009F00895FF93D1
:100E9000EF937DDFEF91FF91B7CFFF93EF93FC01CD
:100EA00081918030B9F360DFFBCFFF93EF9368DF70
:100EB000F1CFDF93CF93CDB7DEB72596A3DFCF91E8
:100EC000DF910895E8EDF0E080818E7F80831092BD
:100ED000E2001092DA001092E100A0EEB0E08C91F6
:100EE00081608C9380818F77808319BCA7EDB0E0FF
:100EF0008C918E7F8C9380818F7E808310920306ED
:100F000008952091E4003091E50095E6A901209133
:100F1000EC00822F817020FF06C08091E80080FFE6
:100F200006C080E008952091E80022FD1AC080915B
:100F30002906882389F0853089F08091EB0085FDB2
:100F40000FC02091E4003091E50042175307F9F2F9
:100F50009150E1F684E0089582E0089583E00895D9
:100F600081E00895EF92FF920F931F93CF937C013E
:100F70008B010E948107C82F811117C08091E80062
:100F800085FD0BC08091E8008E778093E8000E9479
:100F90008107882399F3C82F08C0F70181917F0149
:100FA0008093F1000150110949F78C2FCF911F91C7
:100FB0000F91FF90EF90089580912B0687FF13C04B
:100FC0008091E80082FF06C08091E8008B778093D3
:100FD000E80004C0809129068111F2CF0895809124
:100FE00029068823D9F38091E80080FFF8CF80910B
:100FF000E8008E77ECCF982F9093E900242F762F7E
:1010000050E0891731F07091EC002091ED00509183
:10101000F00021FD07C09F5F973071F78093E900D2
:1010200081E008953091EB003E7F3093EB003091EA
:10103000ED003D7F3093ED003091EB003160309357
:10104000EB007093EC002093ED005093F0002091A2
:10105000EE0027FDE0CF80E00895CF92DF92EF927F
:10106000FF920F931F93CF93DF93C8EDD0E0888159
:101070008F7E8883E7EDF0E080818160808384E06B
:1010800082BF81E08093030688818E7F888302EE91
:1010900010E0F80110821092DA0081EEC82ED12CF7
:1010A000F601108288818F778883888180688883A1
:1010B00088818F7D888319BC1092290610922A0698
:1010C000109227061092260690EEE92EF12CF701D9
:1010D00080818B7F808388818160888342E060E0AB
:1010E00080E00E94FB07F60180818E7F8083F801FB
:1010F000808181608083808188608083F701808126
:101100008E7F8083888180618883DF91CF911F915A
:101110000F91FF90EF90DF90CF900895FC018091A8
:1011200031069091320686179707A0F06115710578
:1011300029F49091E8009E779093E80090E0611583
:10114000710551F4911108C08091E80082FF34C00C
:1011500080E00895BC01F2CF809129068823C1F177
:101160008530C1F18091E80083FD30C08091E800B6
:1011700082FDEACF8091E80080FFE1CF8091F3000B
:101180002091F200382F6115710519F028303105D2
:1011900058F091E02830310509F090E02091E80006
:1011A0002E772093E800CBCF81918093F10061509E
:1011B00071092F5F3F4FE7CF80912906882341F0C7
:1011C000853041F08091E80083FFBECF81E0089533
:1011D00082E0089583E0089580912906843011F417
:1011E00082E0089581E00895809105060895909128
:1011F0009205803F41F48091930587FD10929305FD
:10120000992371F00895813F29F480919305181670
:10121000ACF3F6CF823F81F497FFF2CF10929205A4
:101220008091930590919405892B90919505892B38
:1012300049F710928D050895833F19F4191674F338
:10124000DFCF893F39F4809194051816CCF61092BF
:101250009405D6CF8A3F29F48091940587FFD0CF9B
:10126000F6CF8B3F39F48091950587FFC9CF109257
:101270009505C6CF8C3F29F4809195051816BCF3CF
:10128000BFCF843F31F4809191058E7F809391058B
:10129000B7CF853F21F4809191058D7FF7CF863FB1
:1012A00021F4809191058B7FF1CF873F21F48091CC
:1012B0009105877FEBCF883F21F4809191058F7E48
:1012C000E5CF8D3F31F4809156058E7F8093560592
:1012D00097CF8E3F21F4809156058D7FF7CF8F3FBA
:1012E00009F08ECF809156058B7FF0CF8091560507
:1012F00080FD16C081FD16C082FD16C080918D054F
:101300008823A1F0883280F428E0829FC001112454
:1013100068E270E00E943F32862F672B39F0089513
:1013200082E0089584E0089588E0089581E00895BA
:101330008091560580FD14C081FD14C082FD16C049
:1013400080918D05882381F0843180F422E3829F8F
:10135000C001112464E170E00E943F32862F08959D
:101360008CE0089589E1089585E0089582E3089569
:10137000803F31F40E9498098195809393050895E8
:10138000813F19F40E949809F8CF823F31F40E94FE
:1013900098098195809392050895833F19F40E94DE
:1013A0009809F8CF893F29F40E9476098093940523
:1013B00008958A3F21F40E9476098195F7CF8B3FEB
:1013C00031F40E94760981958093950508958C3FAC
:1013D00019F40E947609F8CF843F31F48091910589
:1013E0008160809391050895853F21F48091910556
:1013F0008260F7CF863F21F4809191058460F1CF20
:10140000873F21F4809191058860EBCF883F21F4DC
:10141000809191058061E5CF8D3F31F48091560533
:1014200081608093560508958E3F21F48091560582
:101430008260F7CF8F3FB9F7809156058460F1CF76
:1014400087E797E7909301088093000888E19AE086
:101450000FB6F894A895809360000FBE909360003B
:10146000FFCF9C014FB7F89480915205909153059E
:10147000A0915405B09155054FBF821B930B089561
:101480002FB7F8948091520590915305A09154057F
:10149000B09155052FBF0895829590E09C01220FD1
:1014A000331F220F331F2C7C959587959595879533
:1014B0008373282B30E0C901880F991F8A7A3595EC
:1014C00027952575822B089580914D0581111092E5
:1014D0004D0508952CE0929F800D1124982F977050
:1014E00086958695869525E0829FF0011124E75F19
:1014F000FA4F50E040E080E0219130E0092E02C038
:10150000369527950A94E2F721703327042E01C0FF
:10151000220F0A94EAF7822B4F5F5F4F4530510547
:1015200059F708952CE0929F800D1124982F977001
:1015300041E001C0440F9A95EAF786958695869515
:1015400095E0899FF0011124E75FFA4F90E080E079
:1015500070E05191DF0111979B01082E02C0369572
:1015600027950A94E2F72170219525272423252722
:101570002C9301968530910561F7089580910805B7
:101580009091D704981301C008958F5F8770FACFA8
:101590002091CA013091CB012817390771F090933F
:1015A000CB018093CA01E0917705F09178053097DF
:1015B00021F00084F185E02D099408952091C8015F
:1015C0003091C9012817390771F09093C9018093B0
:1015D000C801E0917705F0917805309721F00680F9
:1015E000F781E02D09940895E0917705F091780551
:1015F000309721F00190F081E02D099480E008956A
:101600008091610582FD04C09091C501911112C0C5
:1016100082FF04C08091C40181110CC081E08093DD
:10162000C5018093C4010E94400A9093C301809336
:10163000C2015A9A0895811522E5920780F4811516
:10164000E1E59E07E8F4803E910538F0883E91057B
:10165000B8F090548115904170F081E019C0811567
:1016600028E59207D0F38115E9E59E0758F09056DA
:101670008115904290F7FB019581907F81E041F4C4
:1016800080E00895FB019581907F81E09035C1F75E
:1016900008958091600580FF06C080912806813002
:1016A00011F45B9A08955B9808950E94490B539A30
:1016B00008959091750592FF06C0282F2871283053
:1016C000F9F4877F846093FF06C0282F28712831A2
:1016D000F1F4877E84612091760520FF06C0382FC3
:1016E00038713830D9F4877F816021FF06C0282FF8
:1016F00028712831D1F4877E816194FD877E089519
:10170000282F24712430F9F68B7F8860DCCF282FB6
:101710002471243101F78B7E8861DDCF382F317140
:10172000313019F78E7F8860E0CF282F2171213169
:1017300021F78E7E8861E1CFCF93DF93972F70E002
:101740002CE0929F600D711D1124FB0130E6839FF8
:10175000E00DF11D1124EE0FFF1FEB52F64FC59166
:10176000D491CE01C238D105B9F1E8F5C133D10524
:1017700009F499C050F5C932D10509F48DC0CA32B7
:10178000D10509F497C0C11521E5D20708F0BFC003
:10179000C11530E5D30708F016C1C83ED10508F0E1
:1017A0009DC0C03ED10568F5C83AD10508F089C092
:1017B000C53AD10508F0FFC0C130D10511F120971D
:1017C00009F443C02497E8F440C0C533D10509F4B7
:1017D0005CC0C933D105B9F620917505237089F035
:1017E00080EE90E00EC0C33ED10591F168F4C03E9A
:1017F000D105F9F0C23ED10531F62091750522FDE3
:1018000020C0DF91CF910895C63ED10561F1C73E5A
:10181000D10581F1C43ED10509F0B5CF20917605FF
:1018200021FFEFCF8091750584FD0FC087EE90E01A
:10183000E8CF2091750520FD12C13091760530FF6B
:10184000E0CF83EE90E024FFDCCF90E080E0D9CFC2
:101850002091750522FD06C13091760530FDC0CF7F
:1018600024FFCFCFF2CF2091750523FFCACF24FDEF
:10187000ECCFDCCF2091750523FDF7C030917605C4
:1018800031FFEECF84EE90E0BCCF2091750525FFAF
:10189000B8CF89E290E0B5CF2091750525FFB1CF93
:1018A00085E390E0AECF2091750526FFAACF8AE2AE
:1018B00090E0A7CF2091750526FFA3CF81E390E0AC
:1018C000A0CFCF3BD10508F6C85AD0E0CC0FDD1F22
:1018D000C95BDE4F88819981946493CFC11520E262
:1018E000D20760F4C11531E0D30708F08ACFCE01EA
:1018F0009065C03FD10508F084CFA7CFC11580E423
:10190000D80708F4A2CFCE019F70906A7ACFC11594
:1019100095E5D90710F5C11524E5D20708F088C070
:10192000C11533E5D30708F06FC0C11582E5D807AC
:1019300008F465C09E012370332781E090E002C067
:10194000880F991F2A95E2F7C695C69520E2C29F97
:10195000E00111248C2B9D2B50C0C11599E5D907AE
:10196000A0F4C11528E5D20708F067C0C11536E517
:10197000D30708F06ACF8C2F0E94590B90E0982F64
:10198000882788279F7190623CCFC1158AE5D807C8
:1019900008F458C0CE0190568115904208F055CFFA
:1019A0008D2F8F710E94590B90E0982F88278827E0
:1019B0009F718C2BE8CFC55AD0E0CC5BDE4F88817D
:1019C00090E090641ECF9E01E4E036952795EA955D
:1019D000E1F723708C2F86958695837030E2839F84
:1019E000C0011124922BC37021E030E002C0220F0D
:1019F000331FCA95E2F7822B932B9C6802CF9C2F52
:101A00008827816F906AFDCE9E012370332781E085
:101A100090E002C0880F991F2A95E2F7C695C695F7
:101A200030E2C39FE00111248C2B9D2B9A68E9CEF4
:101A30009C2F8827846F906AE4CE9C2F8827806F24
:101A4000906ADFCE8C2F8F700E94590B34E0D695B0
:101A5000C7953A95E1F7CF709C2F9069D2CE89E374
:101A600090E0CFCE82EE90E0CCCE86EE90E0C9CE74
:101A7000BF92CF92DF92EF92FF920F931F93CF937B
:101A8000DF938C01C0904505D0904605E090470556
:101A9000F090480580914E0590914F05A09150051A
:101AA000B0915105C82AD92AEA2AFB2ACFE1D0E011
:101AB000BC2ED701C6010C2E04C0B695A7959795EC
:101AC00087950A94D2F780FD0EC0219788F7B12C34
:101AD0008B2DDF91CF911F910F91FF90EF90DF90B1
:101AE000CF90BF900895B8018C2F0E949C0B019756
:101AF00061F3EECFCF93DF93EC010E94380DBE016E
:101B0000DF91CF910C949C0B0E947A0D292F2F709E
:101B100092959F7092509E3078F4E92FF0E0E05457
:101B2000FD4C0C945332803F19F020F4883E20F491
:101B300081E00895843FE1F380E00895883EC0F39A
:101B4000813FD1F7F5CF822F8695869586950895AA
:101B500081FB222720F982FB992790F980FF08C09A
:101B60005F9A222339F0769A992331F02E9A0895BC
:101B70005F98F7CF7698F8CF2E9808951F93CF935C
:101B8000DF9300D000D00F92CDB7DEB749835A83E0
:101B900089819A81662321F10E94380D182F682FC0
:101BA00089819A810E94920A8A81E981F0E09CE011
:101BB000899FE00DF11D112480E6189FE00DF11DB5
:101BC0001124EE0FFF1FEB52F64F859194910F9069
:101BD0000F900F900F900F90DF91CF911F9108956C
:101BE0000E946A0A182FE0CF2A9880E190E0299A93
:101BF00029980197E1F78F9A8F98089586B159B186
:101C000043B12FB130E0952F9370642F6071962B04
:101C100082958470982B56955870952B440F40747C
:101C2000942BA901440F551F4072942B220F331F90
:101C3000220F331F2078892F822B08950F931F9333
:101C4000CF93DF93F901A0913306B0913406309120
:101C500035063170228121110EC08A179B0759F475
:101C6000332309F46CC084EA99E0DF91CF911F918E
:101C70000F910C94C00626E04202E00111248D0170
:101C80000C1B1D0B6017710779F056E001900D9247
:101C90005A95E1F7E0913306F0913406EC0FFD1F01
:101CA000F0933406E0933306332309F448C0E42F5D
:101CB000042E000CFF0B681B790B75956795ABEA3A
:101CC000BAEA6A9F90016B9F300D7A9F300D112404
:101CD0002E9FB0012F9F700D3E9F700D11246F5FDE
:101CE0007F4F2091330630913406281B390B3595F0
:101CF00027952A9FC0012B9F900D3A9F900D11248C
:101D00008E9F90018F9F300D9E9F300D112482E099
:101D1000413009F481E07F936F933F932F931F929B
:101D20008F938EE799E09F938F930E9459078DB709
:101D30009EB708960FB6F8949EBF0FBE8DBFDF9179
:101D4000CF911F910F9108958091350683FF7EC03A
:101D500087EA96E00E94C006809191051F928F93BA
:101D600082EA96E09F938F930E94590780EA96E05B
:101D70000E94C00680919205282F082E000C330B7C
:101D80003F938F938DE996E09F938F930E9459071D
:101D90008BE996E00E94C00680919305282F082EBB
:101DA000000C330B3F938F9388E996E09F938F93BA
:101DB0000E94590786E996E00E94C006809194052A
:101DC000282F082E000C330B3F938F9383E996E066
:101DD0009F938F930E94590781E996E00E94C00665
:101DE00080919505282F082E000C330B3F938F937D
:101DF0008EE896E09F938F930E9459078BE896E0B8
:101E00000E94C00680918D051F928F9388E896E00E
:101E10009F938F930E94590786E896E00E94C00620
:101E2000809156051F928F9383E896E09F938F933E
:101E30000E94590780E896E00E94C0068DB79EB7C1
:101E40004C960FB6F8949EBF0FBE8DBFE0917705FC
:101E5000F0917805309749F082E0809390050480F6
:101E6000F581E02D80E995E009950E94400A909364
:101E70008C0580938B050895EF92FF920F931F932B
:101E8000CF93DF9380914C0590914B05892B9091D6
:101E90004A05892B80938E0190914D059923B1F0CD
:101EA000892B80938E0180911001882309F45DC0F5
:101EB0008091750587FF59C08EE1E0E9F1E090E07F
:101EC000815008F054C091110E94640AE091770596
:101ED000F0917805309709F450C080911001882363
:101EE00059F08091750587FF07C080918E0180931E
:101EF0008F0185E080938E010280F381E02D8EE8D2
:101F000091E009958091350682FF37C080FF04C0BB
:101F10008EE696E00E94C006CEE8D1E086E9E82E83
:101F200081E0F82E08E616E08091350680FF0BC0B0
:101F300088811F928F931F930F930E9459070F90D0
:101F40000F900F900F902196EC16FD0669F7809187
:101F5000350680FF12C086E696E0DF91CF911F9193
:101F60000F91FF90EF900C94C00686E0A6CF2191D0
:101F7000222309F4A5CF9F5FA3CFDF91CF911F91BB
:101F80000F91FF90EF90089510924B0510924A0523
:101F90000E943C0F86E0E0E9F5E0DF011D928A95A2
:101FA000E9F710928D05109256050E94A40E90E05C
:101FB00080E00E94DE0A90E080E00C94C80A609302
:101FC00045057093460580934705909348050C940A
:101FD000C40F0F931F9341E050E060E070E004C035
:101FE000440F551F661F771F8A95D2F7CB01BA01A0
:101FF00060957095809590950091450510914605E6
:102000002091470530914805602371238223932353
:102010001F910F910C94DF0F9091490580958923B2
:1020200080934905282F277071F4282F082E000C63
:10203000330B9217130639F08595859585950E9487
:10204000E90F1092490508950F931F9341E050E066
:1020500060E070E004C0440F551F661F771F8A952B
:10206000D2F78091450590914605A0914705B09122
:1020700048058A019B01082B192B2A2B3B2BC901F0
:10208000B8011F910F910C94DF0F60934E05709370
:102090004F0580935005909351050C94C40F8823ED
:1020A00041F0809590914C05892380934C050C94C8
:1020B0003C0F0895882339F090914C05982B90930C
:1020C0004C050C943C0F089590911001992359F1FF
:1020D0009091750597FF27C0E82FE695E695E69560
:1020E000EE3180F4F0E0E257FE4F282F277081E0B8
:1020F00090E001C0880F2A95EAF7809592818923A4
:10210000828308959091350690FF19C01F928F9396
:1021100088E496E09F938F930E9459070F900F9049
:102120000F900F900895E0E9F1E09191891303C0B9
:10213000DF0111971C9291E0E639F907B1F7089594
:1021400090911001992349F19091750597FF25C051
:10215000E82FE695E695E695EE3170F4F0E0E2576B
:10216000FE4F877021E030E001C0220F8A95EAF728
:102170008281822B828308959091350690FF1EC044
:102180001F928F938AE296E09F938F930E94590744
:102190000F900F900F900F900895A0E9B1E0EFEF2E
:1021A00090E02D91821751F0EF3F19F4211101C0F9
:1021B000E92F9F5F9630A9F7EF3F09F408950E2E9F
:1021C000000CFF0BE257FE4FD5CF882309F459C00E
:1021D000823871F40E94F40A81FF53C089E30E949F
:1021E000A0100E943C0F89E30E9464100C943C0FE5
:1021F000833859F40E94F40A80FF43C083E50E94AB
:10220000A0100E943C0F83E5EFCF843859F40E9460
:10221000F40A82FF36C087E40E94A0100E943C0F9F
:1022200087E4E2CF9CEF980F913AF0F290E2980F9A
:10223000983088F4877021E030E0A90102C0440F93
:10224000551F8A95E2F7CA01809590914C05892324
:1022500080934C05CBCF9BE5980F933020F490E012
:1022600080E00C94DE0A98E5980F973120F490E016
:1022700080E00C94C80A803F20F00E94F7080C947C
:10228000A40E08959F92AF92BF92CF92DF92EF92E9
:10229000FF920F931F93CF93DF938C01EB01942E4A
:1022A00079016AEF46026001112480913506817040
:1022B000C017D10739F05E01AC0CBD1CF50192814D
:1022C000911139C0882341F1CE01801B910B959566
:1022D00087952BEA3AEA829FA001839F500D929F37
:1022E000500D1124692D64039001659F300D112458
:1022F00081E0981641F182E03F932F931F928F93D4
:1023000088ED93E09F938F930E9459070F900F9051
:102310000F900F900F900F90F701D183C083DF9142
:10232000CF911F910F91FF90EF90DF90CF90BF90D2
:10233000AF909F900895882321F082E094E00E945E
:10234000C006E501B2CF81E0D7CF9FB7F8941092D5
:1023500001069FBF90912906943009F048C0209152
:10236000E9002F703091EC00932F917030FD90E8D0
:10237000922B25E02093E9002091EB0020FF34C050
:102380002091EE0027FF30C020915905222321F033
:102390002091E80025FF28C01092590526E03091D1
:1023A000E80035FF14C08093F1008091E80085FDBE
:1023B00027C08091E80080FFFCCF8091E8008E77F5
:1023C0008093E8009F709093E90080E00895309139
:1023D0002906343049F43091EB0035FD05C0215019
:1023E00041F481E0809359059F709093E9008FEF4D
:1023F0000895EFE9FFE03197F1F700C00000CFCF7B
:102400008FB7F89421E0209301068FBFDBCFCF93E5
:10241000DF9300D00F92CDB7DEB7909129069430AC
:1024200011F589837B836A839093E9008FEF909104
:10243000E800815095FD06C095ED9A95F1F70000F2
:102440008111F5CF8091E80085FF0DC050E040E09C
:1024500063E070E0CE0101960E94B2078091E8002F
:102460008E778093E8000F900F900F90DF91CF91BF
:102470000895CF93DF93EC010E94EC08823011F0B5
:10248000843031F4BE0184E0DF91CF910C940712C7
:10249000DF91CF910895BC0183E00C940712CF9394
:1024A000DF93EC010E94EC08823011F08430F9F4E3
:1024B00084E08093E9008FEF9091E800815095FDD2
:1024C00006C095ED9A95F1F700008111F5CF809146
:1024D000E80085FF0CC050E040E066E070E0CE010F
:1024E0000E94B2078091E8008E778093E800DF9128
:1024F000CF910895CF93DF93EC010E94EC088230D6
:1025000011F08430B9F5809110018823B1F18091E8
:10251000750587FF32C060E284E08093E9008FEFA9
:102520009091E800815095FD06C095ED9A95F1F7E0
:1025300000008111F5CF8091E80085FF1BC08091DC
:10254000100170E050E040E0811104C050E040E034
:1025500068E070E0CE010E94B2078091E8008E77BB
:102560008093E80080E2FE01A6E0B6E001900D92C3
:102570008A95E1F7DF91CF91089568E081E0CDCFB2
:10258000CF93C82F882309F4AEC08238C1F40E94CB
:10259000F40A81FDA8C089E30E94A0100E943C0FAC
:1025A0002FEF81EE94E0215080409040E1F700C091
:1025B000000089E30E946410CF910C943C0F833893
:1025C000A1F40E94F40A80FD8EC083E50E94A01051
:1025D0000E943C0F2FEF81EE94E02150804090400C
:1025E000E1F700C0000083E5E5CF8438A1F40E9444
:1025F000F40A82FD78C087E40E94A0100E943C0F7C
:102600002FEF81EE94E0215080409040E1F700C030
:10261000000087E4CFCF8CEF8C0F813A88F5809152
:102620001001882301F18091750587FF1CC0EC2FF4
:10263000E695E695E695F0E0E257FE4F828190E060
:102640004C2F477021E030E002C0220F331F4A9523
:10265000E2F782239323892B79F08C2F0E94641058
:102660000E943C0F09C0E0E9F1E08191C817A9F38D
:1026700021E0E639F207C9F78C2F0E94A0109CCF09
:1026800080E28C0F883068F4C77021E030E001C030
:10269000220FCA95EAF780914C05822B80934C0556
:1026A0008BCFEBE5EC0FE33040F4F0E0EC5BFE4F5A
:1026B000808190E0CF910C94DE0AE8E5EC0FE731E1
:1026C00050F4F0E0EE0FFF1FE95BFE4F8081918137
:1026D000CF910C94C80AC03F30F08C2F0E94B809EB
:1026E000CF910C94A40ECF910895CF93C82F0E9440
:1026F000C012C93349F42FEF87EE93E02150804098
:102700009040E1F700C000008C2FCF910C94E510B1
:102710000F931F93CF93DF93C62FD42F022FFC016B
:1027200082818823A1F06093CD040E94400A909397
:10273000C7018093C601C77081E001C0880FCA95A8
:10274000EAF7DF91CF911F910F910C945A101091DD
:10275000CD04161335C08091C6019091C7010E9427
:10276000310A883C910560F5C0E2CD0F1D17B9F024
:1027700080E2810F883040F4177081E001C0880F3B
:102780001A95EAF70E944F10C83048F481E09D2F57
:10279000977001C0880F9A95EAF70E945A10802F0F
:1027A0000E947513C83098F4D77081E001C0880F7B
:1027B000DA95EAF7DF91CF911F910F910C944F10AA
:1027C000C77081E001C0880FCA95EAF7F3CFDF91A7
:1027D000CF911F910F910895CF92DF92EF92FF92C8
:1027E0000F931F93CF93DF93EC018AE0C82EFE0175
:1027F0008491882309F483C0813009F040C0319668
:102800008491813051F42296FE011491812F0E940F
:10281000C012812F0E94E51007C0823039F4229641
:10282000FE0184910E94C0122196E1CF833021F4F1
:102830002296FE018491EECF843009F05EC022968C
:10284000FE01249190E080E0FE0131962053330B8D
:102850002A30310548F0019738F3EFE9FFE031976E
:10286000F1F700C00000F7CFC89EA001C99E500D2F
:102870001124C901840F951F2491EF01E5CFE82FA2
:10288000F0E0E45FFD4FD490082F0695069506957D
:1028900010E0F801E450FE4FE4908770F12C082E10
:1028A00002C0F594E7940A94E2F721E0E222FF24C3
:1028B00004511E4FF801049110E002C015950795D0
:1028C0008A95E2F701701127E114F10419F081EE05
:1028D0000E94C0120115110519F086EE0E94C01267
:1028E0008D2D0E947513012B19F086EE0E94E510C4
:1028F00081EEEF2809F498CF8DCFEF0195CFDF91CE
:10290000CF911F910F91FF90EF90DF90CF9008959E
:10291000CF92DF92EF92FF920F931F93CF93DF93AB
:1029200000D000D00F92CDB7DEB78A012FE030E0A3
:1029300090E08217930709F079C02A9A299A29987A
:1029400021503109B0F76F5F7F4FFE01319680E073
:1029500090E0F894D6B0E9B0F3B0CFB0D192E19264
:10296000F192C1928F9AD6B0E9B0F3B0CFB0D082D5
:10297000E082F082C082019686179707A0F37894D0
:102980008F980E94F40D8AE28A95F1F700C02C2DF1
:1029900030E08E2D83709F2D9071892B9D2D929507
:1029A0009470892B9E2D96959870892B9F2D990F49
:1029B0009074892BA901440F551F4072842B220F5C
:1029C000331F220F331F2078822B0115110501F1CF
:1029D0005A814B812C8130E0998192959470652FBA
:1029E0006370742F7071672B962B56955870952BCA
:1029F000440F4074942BA901440F551F4072942B2F
:102A0000220F331F220F331F2078922BF80190835F
:102A10000F900F900F900F900F90DF91CF911F911B
:102A20000F91FF90EF90DF90CF9008952A9886CF76
:102A300090638E9820E130E097FF0EC02A9A880FAD
:102A4000991F299A299821503109B1F78E9A8AE263
:102A50008A95F1F700C008952A98F1CF2F923F92FE
:102A60004F925F926F927F928F929F92AF92BF929E
:102A7000CF92DF92EF92FF920F931F93CF93DF934A
:102A800000D000D00F92CDB7DEB78B83262E3A014F
:102A9000EE24EA94AFE0FA2E0FEF1FEF662329F041
:102AA000E12CF0E1FF2E10E000E044244394512C8F
:102AB000C8018E0D9F1D9D838C83222009F484C044
:102AC000FC0197FF03C03196FD83EC838C819D81CF
:102AD000959587959D838C838C819D810E94181587
:102AE00055ED852E59E0952ED12CC12CB2010C2C20
:102AF00002C0660F771F0A94E2F7940190E080E02D
:102B0000A0E06114710459F0FC01EE0FFF1FE60D07
:102B1000F71D4081518146235723452B81F0F90150
:102B200045915491452B59F047E050E0481B590B13
:102B3000F20102C0EE0FFF1F4A95E2F7AE2B01969D
:102B4000285E3F4F88309105E1F6FB81FA23F98337
:102B50002FE02C192A83AA24A394B12C312C50E005
:102B600040E063E070E08A812220B1F10E94881485
:102B70009981892391E009F090E0390EC50183190C
:102B800091090997E4F10C811D810F5F1F4F0E150C
:102B90001F050CF48DCFC8010F900F900F900F9070
:102BA0000F90DF91CF911F910F91FF90EF90DF90E9
:102BB000CF90BF90AF909F908F907F906F905F90DD
:102BC0004F903F902F900895EC81FD813196F595BF
:102BD000E795FD83EC8380CF0E948814E9818E23E2
:102BE00091E08E1390E0390EC50183199109099780
:102BF00034F0EC80FD80F1E0EF1AF108C8CF28E056
:102C0000231540F08FEFA81AB80A91E1A916B10474
:102C100009F0A5CFEFEFCE1ADE0AF2E08F0E911C7D
:102C20002CE0C216D10409F061CF211003C00C8141
:102C30001D81ADCFEC80FD80AACF2F923F924F92A5
:102C40005F926F927F928F929F92AF92BF92CF923C
:102C5000DF92EF92FF920F931F93CF93DF93CDB745
:102C6000DEB728970FB6F894DEBF0FBECDBF8C013C
:102C7000462E842E0E941815C8010E94181525EDB5
:102C8000E22E29E0F22E40E1449E20011124C201EF
:102C900089559A4F2C0110E000E0FE0131966F013A
:102CA00066246394712C912C47E0A42EB12CF6017C
:102CB00048E011924A95E9F78FE0282E201A90E11A
:102CC000392E50E040E063E070E0822D0E948814CD
:102CD000F60127E030E090E0AC01022E02C05595ED
:102CE00047950A94E2F740FF03C040814F5F40835D
:102CF0002150310931962F3F320771F73A94311044
:102D0000E0CFA301002E02C0440F551F0A94E2F742
:102D1000D201970190E080E0F90165917491672BF1
:102D2000C9F0B501681B790BF40102C0F595E79570
:102D30006A95E2F7E0FF0EC0F601E80FF91F608127
:102D4000693040F06D917C911197642B752B119631
:102D50007C936E930196285E3F4F129688309105C2
:102D6000D9F60F5F1F4FF2E0EF0EF11C0C3011058A
:102D700009F09DCF28960FB6F894DEBF0FBECDBFE9
:102D8000DF91CF911F910F91FF90EF90DF90CF9047
:102D9000BF90AF909F908F907F906F905F904F907B
:102DA0003F902F90089590E0DC0124E0AA0FBB1F14
:102DB0002A95E1F7A955BA4F70E0FB0134E0EE0F18
:102DC000FF1F3A95E1F7E955FA4F20E101900D9286
:102DD0002A95E1F7660F771FFB01E950FA4F208132
:102DE0003181880F991FFC01E950FA4F318320830C
:102DF000640F751FFB0120813181840F951FFC0139
:102E0000318320830895CF9384E090E00E9459326B
:102E1000C82F81E290E00E945932982F8C2FCF91D9
:102E2000089510924C0580911001E0E9F1E08823AB
:102E300059F08091750587FF07C08EE1DF011D9273
:102E40008A95E9F70C94C40F86E0F8CFCF93DF930F
:102E5000EC018091350680FF04C08BE599E00E946B
:102E6000C0060E94111760E070E0CB010E94DF0FE6
:102E7000D0933406C0933306DF91CF9108951F930A
:102E8000CF93DF93CDB7DEB7AA970FB6F894DEBF26
:102E90000FBECDBF8BE296E02091F100DC012D93B7
:102EA000CD01B6E083339B07B9F780912C068330C0
:102EB00009F471C0B8F4813009F448C0823009F4D3
:102EC000B2C08091E80083FF3AC180912B069091B7
:102ED0002C069A3008F033C1E92FF0E0E253FD4CA4
:102EE0000C9453328A3009F48DC08B3009F470C0D1
:102EF000893039F780912B06813219F780912F069E
:102F000090913006009711F00297D9F68091E80071
:102F1000877F8093E8008091E80082FF37C090911E
:102F2000F3008091F200029729F48091F1008B7FE9
:102F3000813021F48091F100809305068091E800B2
:102F40008B778093E8000E94DC07BBCF80912B0633
:102F5000813A09F0B6CF8091E800877F8093E8003E
:102F600080912F0690913006892B61F460E286E013
:102F700096E070E00E948E088091E8008B77809345
:102F8000E8009FCF60E090E080E0F3CF80912906D9
:102F90008111C1CF96CF80912B06813A09F091CF54
:102FA00080912F0690913006892B09F08ACF80916D
:102FB000E800877F8093E8008091E80080FFFCCFE5
:102FC000809110018093F1008091E8008E77B9CF55
:102FD00080912B06813209F074CF80912F06909159
:102FE0003006892B09F06DCF8091E800877F8093B0
:102FF000E8000E94DC0780912D06809310010E945A
:1030000011175FCF80912B06813209F05ACF809142
:10301000E800877F8093E8000E94DC0780912E06FD
:10302000809304064ECF80912B06813A09F049CF58
:103030008091E800877F8093E8008091E80080FF1E
:10304000FCCF80910406BECF803899F0823809F019
:1030500076C080912F068F70873008F070C0809303
:10306000E9008091EB0085FB882780F91092E90048
:1030700006C080912606909127069111826090915A
:10308000E800977F9093E8008093F1001092F100A0
:103090008091E8008E77CFC1882309F4BCC18230CB
:1030A00009F04DC080912D068111C0C180912F067D
:1030B0008F702FEF280F263008F041C08093E90071
:1030C0002091EB0020FFB2C1933031F48091EB00EE
:1030D00080628093EB00AAC19091EB009061909385
:1030E000EB0021E030E001C0220F8A95EAF720933F
:1030F000EA001092EA008091EB008860EACF81112B
:103100001EC010912D061F778091E3008078812BDF
:103110008093E3008091E800877F8093E8000E941D
:10312000DC078091E80080FFFCCF8091E30080689D
:103130008093E30082E0111183E08093290680915F
:10314000E80083FF0AC08091E800877F8093E80051
:103150008091EB0080628093EB00AA960FB6F89402
:10316000DEBF0FBECDBFDF91CF911F910895805874
:10317000823028F720912D0630912E062C3DE3E079
:103180003E07A1F583E08A838AE289834FB7F894EA
:10319000DE01139620E03EE051E2E32FF0E0509391
:1031A0005700E49120FF03C0E295EF703F5FEF709E
:1031B0008E2F90E0EA30C0F0C7968D939D932F5FDD
:1031C000243159F74FBF8091E800877F8093E80052
:1031D0006AE270E0CE0101960E948E088091E800BC
:1031E0008B778093E800ABCFC096E7CF80912F0616
:1031F00090913006432F55274330510509F44AC0BA
:1032000078F54130510509F485C08BE790E0E0E0A6
:10321000F8E04230510509F092CF2091E800277F75
:103220002093E800209131063091320682179307EF
:1032300008F49C0140E02115310509F070C04111EE
:103240006EC08091E80082FDC9CF80912906882355
:1032500029F2853019F28091E80083FFF2CFBECFCA
:103260004132510509F447C04232510509F067CF98
:103270008430910508F063CFFC01EE0FFF1FE55885
:10328000FE4F0190F081E02D89589E4FDC018C911A
:1032900090E01DC0332721303105E9F021153105BB
:1032A00079F022303105F9F02330310509F047CFAC
:1032B000EDE8F8E0E4918E2F90E0EDE8F8E007C04B
:1032C000E7E5F9E0E4918E2F90E0E7E5F9E000977B
:1032D00009F435CFA2CFEFECF8E0E4918E2F90E027
:1032E000EFECF8E0F4CFE3E9F8E0E4918E2F90E022
:1032F000E3E9F8E0ECCF8430910508F020CF880FA7
:10330000991FFC01ED57FE4F0190F081E02D89E0FF
:1033100090E083CF82E190E0EBE7F8E07ECF809110
:103320002906882309F45ACF853009F457CF8091B4
:10333000E80083FD53CF8091E80082FD82CF809129
:10334000E80080FF78CF9091F3008091F200211582
:10335000310519F08830910550F041E0089709F0E7
:1033600040E08091E8008E778093E80064CF44913C
:103370004093F1003196215031090196E8CF803811
:1033800009F0DDCE8091E800877F8093E80080918E
:103390002A068093F1007CCE8111D1CE10912D06AA
:1033A000123008F0CCCE8091E800877F8093E8004F
:1033B00010932A060E94DC07112311F084E005C057
:1033C0008091E30087FDFACF81E08093290642E0F7
:1033D00061EC81E00E94FB0742E261EC84E00E9424
:1033E000FB0742E261EC82E00E94FB0742E260ECF4
:1033F00083E00E94FB0742E261EC85E00E94FB074C
:103400009091290681E0943009F080E080932806AD
:103410000E94550B94CE80912D06813009F08FCEFD
:1034200081E0933009F080E0809327061092E90054
:103430008091E800877F8093E8000E94DC077FCEC0
:103440002F923F924F925F926F927F928F929F92B4
:10345000AF92BF92CF92DF92EF92FF920F931F93A2
:10346000CF93DF9300D000D0CDB7DEB74C0180E121
:10347000F40111928A95E9F727EFC22E25E0D22EAA
:1034800037EAA32E35E0B32E47E0242E312CF60187
:10349000819191916F010E94181510E000E0FFE00A
:1034A000F01BFB830C8344244394512C002E02C058
:1034B000440C551C0A94E2F73501F12CE12C80E014
:1034C000F301219131913F0124213521232BA1F1D9
:1034D000811109C0AE014F5F5F4F63E070E08B81E7
:1034E0000E9488148A8391012E193F09898190E0F6
:1034F000022E02C0959587950A94E2F780FD1BC0C5
:10350000F701EE0FFF1FE80DF91D4A81842F90E0AF
:1035100002C0959587952A95E2F7817099270C80CE
:1035200002C0880F991F0A94E2F720813181822B13
:10353000932B9183808381E09FEFE91AF90AE8E0F9
:10354000EE16F10409F0BCCF0F5F1F4F0C301105D0
:1035500009F0A5CFF0E1AF0EB11C41E0C41646E082
:10356000D40609F094CF0F900F900F900F90DF9139
:10357000CF911F910F91FF90EF90DF90CF90BF9070
:10358000AF909F908F907F906F905F904F903F9003
:103590002F9008957F928F929F92AF92BF92CF9279
:1035A000DF92EF92FF920F931F93CF93DF9380915F
:1035B000BE0181117CC02FB7F89480915205909183
:1035C0005305A0915405B09155052FBF8031974206
:1035D000A105B10508F46BC080915F058F938091C0
:1035E0005E058F9381EE92E09F938F930E9459071F
:1035F00080915B058F9380915A058F9380915D0533
:103600008F9380915C058F938BEB92E09F938F93C8
:103610000E94590707EF15E097EAE92E95E0F92E89
:103620008DB79EB70A960FB6F8949EBF0FBE8DBF9A
:10363000D0E0C0E024E9C22E22E0D22E3CE8A32E46
:1036400032E0B32ED8018C9111969C910E5F1F4FE2
:103650009F938F93DF93CF93DF92CF920E9459076E
:103660000F900F900F900F900F900F90470188E0F0
:10367000782ED4018C9111969C91B2E08B0E911C06
:103680009F938F93BF92AF920E9459077A940F90A5
:103690000F900F900F907110ECCF2196E0E1EE0E9D
:1036A000F11CC530D10571F681E08093BE01809197
:1036B0000501882309F475C085E695E00E94201A6B
:1036C000EEEAF1E045E655E0C0E021913191DA0102
:1036D0008D919D91AD012817390709F0C1E09F0137
:1036E00022503109D9018D939C93B1E0EE3BFB0749
:1036F00061F7CC2309F45DC081E08093C1010E9491
:10370000400A9093C0018093BF018091BF019091C6
:10371000C0010E94310A069708F44FC080916505E8
:103720009091660590937A0580937905809167055D
:103730009091680590937C0580937B058091690545
:1037400090916A0590937E0580937D0580916B052D
:1037500090916C059093800580937F0580916D0515
:1037600090916E05909382058093810580916F05FD
:1037700090917005909384058093830580917105E5
:1037800090917205909386058093850580917305CD
:103790009091740590938805809387051092C101DC
:1037A0000CC0E5E6F5E080E1DF011D928A95E9F7BE
:1037B00087CF8091C1018111A8CF8091C501882355
:1037C00081F08091C2019091C3010E94310A209141
:1037D000040128171906A0F45A981092C5011092F6
:1037E000C4018C2FDF91CF911F910F91FF90EF902B
:1037F000DF90CF90BF90AF909F908F907F90089573
:103800002091610522FFEDCF9091C40182FD07C098
:103810009111E7CF81E08093C4015A9AE2CF9923B6
:1038200001F31092C4015A98DCCFAB01BC0188E1CE
:1038300090E00C947F320F931F93CF93DF93C1E6F8
:10384000D5E0282F220F220F220F98819770922BFC
:10385000988382958695837002E615E0F801908141
:103860009C7F892B808360916005709161058091B8
:103870006205909163050E94151C8881982F96958A
:1038800096959695F801808183708295880F807E49
:10389000892B1F928F938DE993E09F938F930E94C2
:1038A00059070F900F900F900F90DF91CF911F91BC
:1038B0000F9108950F931F93CF93DF93C2E6D5E046
:1038C000282F220F220F220F98819770922B988316
:1038D00003E615E0982F929596959770F8018081F0
:1038E000887F892B8083609160057091610580914C
:1038F0006205909163050E94151C8881982F96950A
:1039000096959695F80180818295880F807E892B07
:103910001F928F938FE793E09F938F930E94590795
:103920000F900F900F900F90DF91CF911F910F91FB
:1039300008950F931F93CF93DF93C0E6D5E0282F10
:10394000220F220F220F98819770922B98838295D5
:103950008695837001E615E0F80190819C7F892BA4
:103960008083688179818A819B810E94151C88816E
:10397000982F969596959695F801808183708295FB
:10398000880F807E892B1F928F9386E693E09F930A
:103990008F930E9459070F900F900F900F90DF9117
:1039A000CF911F910F9108950F931F93CF93DF93A2
:1039B000C0E6D5E08881816088830E94490B8881B8
:1039C000897F888301E615E0F80180818770E2E64F
:1039D000F5E090819C7F908380628B7FF8018083EB
:1039E00084E080930401688179818A819B810E94AF
:1039F000151C8881869583701F928F9389E493E0CC
:103A00009F938F930E9459078881982F969596953A
:103A10009695F801808183708295880F807E892B2E
:103A20001F928F9380E393E09F938F930E94590797
:103A30008DB79EB708960FB6F8949EBF0FBE8DBF88
:103A4000DF91CF911F910F910895CF93DF93C0E63F
:103A5000D5E088818E7F88830E94490B1F921F9238
:103A600085E193E09F938F930E9459070F900F90E9
:103A70000F900F90688179818A819B81DF91CF912E
:103A80000C94151CCF93DF93C0E6D5E0888181604C
:103A900088830E94490B1F9281E08F938AEF92E006
:103AA0009F938F930E9459070F900F900F900F9044
:103AB000688179818A819B81DF91CF910C94151C5B
:103AC0006CEE7EEF90E080E00E948B3260E082E05E
:103AD00090E00E946D3260E083E090E00E946D32E1
:103AE00010924E0510924F051092500510925105FC
:103AF00060E084E090E00E946D3260E081E290E05E
:103B00000E946D3260E085E090E00E946D3260E0DE
:103B100086E090E00E946D326FEF87E090E00E94B7
:103B20006D3240E050E0BA0188E090E00E947F32C0
:103B300060E08DE090E00E946D3240E050E0BA011C
:103B400088E190E00E947F3260E087E190E00E948F
:103B50006D3240E050E0BA018CE190E00E947F328B
:103B600060E080E290E00E946D320E94D41C40E050
:103B700050E0BA018FE090E00E947F3240E050E0D8
:103B8000BA0183E190E00C947F324F925F926F9282
:103B90007F928F929F92AF92BF92CF92DF92EF92DD
:103BA000FF920F931F93CF93DF938C01FC018381CE
:103BB0009481892B39F040815181842F85238F3F57
:103BC00009F0ABC6DF91CF911F910F91FF90EF905D
:103BD000DF90CF90BF90AF909F908F907F906F902D
:103BE0005F904F900895F80182818111B4C6C4306E
:103BF000FDE5DF0709F48AC008F06FC0C3303DE57A
:103C0000D30709F47BC0C63EFCE5DF0709F0A8C670
:103C1000F801828181110E94421DF8018281C93E12
:103C2000FCE5DF0709F0C3C081110E94D41CF80134
:103C30008281CC3EFCE5DF0709F0F0C0882381F0EB
:103C400080916005982F969596959695809161053F
:103C500083708295880F807E892B8F5F0E94991CCC
:103C6000F8018281C23FFCE5DF0709F0F0C088233C
:103C7000B1F080916105982F9695969596958091D3
:103C8000620583708295880F807E892B853008F4C9
:103C900000C18150990B809304010E941B1C8091EC
:103CA000600580FF06C190912806913009F001C19E
:103CB000F8019281992309F401C1869583708230BD
:103CC00008F4EEC0FE01E059F140E631F10508F0DC
:103CD000FDC0E852FD4C0C945332C6308DE5D80738
:103CE000D9F0C7309DE5D90709F08DCF609100016B
:103CF000709101014FEF86EC94E015C08CEC91E0DF
:103D00000E94261781E08093CC045CCF86EC94E07F
:103D10000E94261782E0F7CF6091020170910301A3
:103D200041E08CEC91E0DF91CF911F910F91FF90DA
:103D3000EF90DF90CF90BF90AF909F908F907F904B
:103D40006F905F904F900C94CF27609133067091E5
:103D5000340622E031E041E08CEC91E00E94421117
:103D6000F7C5609133067091340620E031E04FEFE3
:103D700086EC94E0F3CF813061F0823009F043CFDC
:103D8000609102017091030198014FEF86EC94E07D
:103D900008C06091000170910101980141E08CEC34
:103DA00091E00E941E0E2FCF81110E94251DF80167
:103DB0008281CA3EFCE5DF0709F0F0C5882371F176
:103DC00090916005892F86958F5F8370880F997F0A
:103DD000892B80936005982F9670963019F4897F0F
:103DE0008093600580916005867091E009F090E015
:103DF0001F929F9386E394E09F938F930E945907AD
:103E000060916005709161058091620590916305F4
:103E10000E94151C0F900F900F900F90F801828157
:103E2000CD3EFCE5DF0709F0E5C5882381F08091F0
:103E30006005982F9695969596958091610583706B
:103E40008295880F807E892B81500E94991CF801F1
:103E50008281CF3EFCE5DF0709F0EBC5882309F43A
:103E60001ECF80916205982F969596959695809194
:103E700063058295880F807E892B883768F4865F7A
:103E80000E945A1C0CCF0E94421D7EC584E090E027
:103E9000CCC584E690E0FFCE88E7F2CF84E1F0CF96
:103EA000B801CE010E941B0B882309F40BCF0E949E
:103EB000000BF8018281882349F004CF867031F02D
:103EC000B801CE010E941B0B8111F1CFF801858151
:103ED00082958F701F928F93858181701F928F932F
:103EE00084818F9383818F9382811F928F938181AD
:103EF0001F928F9380811F928F93DF93CF938CE6D5
:103F000094E09F938F930E9459078DB79EB7409678
:103F10000FB6F8949EBF0FBE8DBFC33F9CE5D90777
:103F200009F4DBC008F06DC0C83DFCE5DF0709F40B
:103F3000D0C0C93D2CE5D20709F4DBC0C73D3CE544
:103F4000D30709F06DC026E241EE61EEC801DF91B2
:103F5000CF911F910F91FF90EF90DF90CF90BF9086
:103F6000AF909F908F907F906F905F904F900C9448
:103F7000881382E096E00E94EC13A8CF82EF95E0D0
:103F8000FACF82EE95E0F7CF87ED95E0F4CF8FEC96
:103F900095E0F1CF87EC95E0EECF89EB95E0EBCFA4
:103FA0008DEA95E0E8CF82EA95E0E5CF82E995E0F9
:103FB0000E94EC1382E895E0DECF8FE795E0DBCF3F
:103FC00085E795E0D8CF8BE695E0D5CF82E695E002
:103FD000D2CF83E595E0CFCF8BE395E0CCCF85E2E0
:103FE00095E0C9CF8AE195E0C6CF87E095E0C3CFE1
:103FF00081EF94E0C0CF8AED94E0BDCF8FEB94E0E9
:10400000BACFC53F8CE5D80709F46FC008F469C082
:1040100027E245EE66EEC63FECE5DE0709F496CFF3
:10402000F8018281882309F41FC51092CD04C230A3
:10403000FCE5DF0708F43EC1C6312CE5D20738F0B5
:104040009E012A5F3C452930310508F033C10E94AA
:1040500003179093760580937505C0313CE5D3072F
:1040600009F4F7C008F085C0C8309CE5D90709F409
:10407000E6C008F054C0C430FCE5DF0709F4D7C03F
:10408000D8F5C2303CE5D30709F4C7C0C330DC45DE
:1040900009F4C9C060917505C091760584E090E08F
:1040A0000E946D326C2F81E290E00E946D32DF91B0
:1040B000CF911F910F91FF90EF90DF90CF90BF9025
:1040C000AF909F908F907F906F905F904F900C94E7
:1040D000111727E245EE65EE39CF26E241EE60EE9C
:1040E00035CF27E245EE64EE31CF26E241EE62EEB7
:1040F0002DCF28E241E0EFCF809175058061C63079
:104100009CE5D90709F48CC0809175058860C7309B
:10411000DC4508F485C080917505806281C080917E
:1041200075058D7FCC30FCE5DF0709F479C070F4AC
:10413000809175058C60CA303CE5D30709F470C0E6
:1041400008F481C0809175058E7F6AC080917505E5
:10415000877FCE309CE5D90709F462C08091750550
:104160008B7FCF30DC4508F45BC0809175058F7E76
:1041700057C0CB3FFCE5DF0709F45DC030F5C33124
:104180003CE5D30709F46DC078F4C1319CE5D9074B
:1041900009F463C0C231DC4509F07CCF0E941117DD
:1041A000809175058F773CC0C531FCE5DF0709F4C8
:1041B00060C008F474C0809176058160CA3FDC4518
:1041C00009F068CF8093760565CFCF3F8CE5D8079F
:1041D00009F44BC088F4809176058D7FCD3FECE5E6
:1041E000DE0781F3809176058E7FCE3FDC4550F36C
:1041F000809176058360E6CFC1302DE5D20709F4C2
:1042000057C008F442C060E0C230DD4509F042CF3B
:104210008EE090E00E946D323DCF80917505816007
:104220008093750537CF809175058260F9CF8091B5
:1042300075058460F5CF809176058260C3CF80914B
:1042400075058064EDCF0E94111780917505806817
:10425000E7CF809175058F7DE3CF809175058F7BCA
:10426000DFCF80917505837FDBCF809176058C7FD2
:10427000A9CF8091750582FB992790F921E09227BB
:1042800090FB82F990FB83F9CBCF80917605982F34
:10429000909591708E7F892B90FB81F993CF0E942E
:1042A000111790917505892F97FB87F98058B8CF22
:1042B00061E0AECFC6319CE5D90709F0E1C380913A
:1042C0004C058A7A91E009F490E09093CE04811134
:1042D00015C089E20E94A010DF91CF911F910F912C
:1042E000FF90EF90DF90CF90BF90AF909F908F9016
:1042F0007F906F905F904F900C943C0F85E3EACFD6
:1043000085E3BBC390913506892F8E7F90FF816036
:104310008093350680FF14C089E196E0DF91CF914C
:104320001F910F91FF90EF90DF90CF90BF90AF90D3
:104330009F908F907F906F905F904F900C94C006ED
:1043400087E096E0EBCFDF91CF911F910F91FF9027
:10435000EF90DF90CF90BF90AF909F908F907F9025
:104360006F905F904F900C94601DF801C081D181D7
:104370008823D1F1CE010E94380DF82E682FCE018E
:104380000E94920ABE018F2D0E949C0BD82FC92F2C
:10439000A82EF801C580C2943FE0C322F280F1103C
:1043A00010924B0580914905877079F0FF2069F0E4
:1043B00080E28D0F883048F082E00E940C108091DE
:1043C00049058770EE24E3948111E12CDC2ED29410
:1043D0002FE0D222FBE0FD1508F440C0ED2DF0E007
:1043E000E251FD4C0C945332CE010E946A0AF82E21
:1043F000C9CF2C2F2F70C22EC07F19F0C29490EF1E
:10440000C922FF20C9F0CC2069F080E28D0F8830EE
:1044100010F0A1100BC080914C05C82AC0924C0529
:104420000E943C0F8D2F0E94C01218C080914B0536
:10443000C82AC0924B05F4CF8D2F0E94E510CC20E6
:1044400069F0C094D05ED83010F0A1103FC08091C8
:104450004C05C822C0924C050E943C0FED2DE8503F
:10446000FF0B349720F40E94F40A0E94A80DEE205E
:10447000A9F08091490580FD11C0F801128285954F
:10448000859585950E942410C8010E94C51D8091C4
:1044900049058595859585950E94E90FF80140812C
:1044A0005181628173818481DF91CF911F910F913E
:1044B000FF90EF90DF90CF90BF90AF909F908F9044
:1044C0007F906F905F904F900C94BE0D80914B0544
:1044D000C822C0924B05C0CF3C2F3F70B32EC07F87
:1044E000C03219F0B29480EFB822AA2071F091E0A6
:1044F000A91661F1FF20B9F1CC2071F1F801858195
:1045000080FF90CF8F70858327C0FF2091F090911E
:104510004D058B2D892BC11003C00E945A109ECFD0
:10452000E1E0CE12FACF981709F498CF80934D05A9
:1045300095CFC11006C00E94640A8B2D0E944F10B7
:104540008DCFF1E0CF1609F489CFF5CFFF2031F000
:1045500025E02C1508F482CF8B2DDFCF34E03C15FD
:1045600008F47CCFEACFCC2041F3D93349F4FFEFF4
:1045700027EE33E0F15020403040E1F700C000006A
:104580008D2F0E94E5106ACF8C2F869586958370BB
:1045900069F0813009F062CF8D2F9C2F9370F1105C
:1045A00002C090E080E00E94C80A58CF8D2F9C2F57
:1045B0009370F11002C090E080E00E94DE0A4ECFBE
:1045C000FF2009F1D53F99F0D63FB9F0D43F49F427
:1045D0008091CF049091D00481609093D004809317
:1045E000CF048D2F0E94B8090E94A40E37CF80916E
:1045F000CF049091D0048260F0CF8091CF0490914D
:10460000D0048460EACFD53F89F0D63FA9F0D43FEB
:1046100049F48091CF049091D0048E7F9093D00480
:104620008093CF048D2F0E94F708DECF8091CF04B6
:104630009091D0048D7FF2CF8091CF049091D004DF
:104640008B7FECCF8C2F837009F065C0F11006CF03
:104650008D2F829586958770880F880F6D2F6F70CC
:10466000862E912CB12CA12C082E04C0880C991CEC
:10467000AA1CBB1C0A94D2F740E050E0BA01D4FF58
:104680000FC04FE050E060E070E004C0440F551FE1
:10469000661F771F8A95D2F7409550956095709563
:1046A000C695C695C370C23019F1D8F440904E0536
:1046B00050904F056090500570905105C13069F0E1
:1046C000482959296A297B29CB01BA01642175211E
:1046D000862197210E944510C1CE84289528A628BE
:1046E000B728CB01BA01682979298A299B29F2CFF9
:1046F000482959296A297B2980904E0590904F05B9
:10470000A0905005B0905105CB01BA0168257925DC
:104710008A259B25DFCF8695FF2011F08C2F817095
:10472000882309F49BCE8D2F829586958770880FFC
:10473000880F6D2F6F70862E912CB12CA12C082E16
:1047400004C0880C991CAA1CBB1C0A94D2F740E038
:1047500050E0BA01D4FF0FC04FE050E060E070E0DD
:1047600004C0440F551F661F771F8A95D2F74095E6
:10477000509560957095C695C695C370C23019F175
:10478000D8F44090450550904605609047057090DC
:104790004805C13069F0482959296A297B29CB018C
:1047A000BA0164217521862197210E94DF0F56CE20
:1047B00084289528A628B728CB01BA016829792929
:1047C0008A299B29F2CF482959296A297B29809077
:1047D000450590904605A0904705B0904805CB014F
:1047E000BA01682579258A259B25DFCFCF70FF2068
:1047F00029F08C2F0E9424108D2F8FCE8D2F0E9498
:104800004F108C2F0E94E90F29CE8D2F92EFA91601
:1048100009F450C09A1578F0E0EFAE1619F1F1EFF7
:10482000AF1609F43FC0FF2009F467C0C110FACDEC
:104830008C2F8F713CC023EFA21609F440C034EFD7
:10484000A312F1CFFF2009F44DC0CF718C2F0E942D
:104850002410E8E0CE9FC0011124836080934905B5
:104860008C2F25C0FF20C9F084E08C1508F4F6CD0C
:10487000CF7161E070E080E090E004C0660F771FC8
:10488000881F991FCA95D2F78090450590904605DC
:10489000A0904705B0904805A4CF95E09C1508F47A
:1048A000DDCDE6CF8C2F8F71FF2009F4ABCF0E94B6
:1048B0002410D4CD8C2F8F71FF20C9F3A3CF60E0DB
:1048C00070E0CB01FF2009F470CFCF7161E070E0A0
:1048D00080E090E004C0660F771F881F991FCA957B
:1048E000D2F763CF81E00E940C10F1E0FC1508F0D4
:1048F000B5CD82E00E940C10B1CDCC2059F08933A7
:1049000009F03ECE2FEF37EE83E02150304080405B
:10491000E1F734CE8C2F8F7175CF628173818481E2
:104920000E94BE0DEC018091CC04882309F45BC980
:10493000C530EDE5DE0709F01ECAF8019281992322
:1049400009F440C9813009F400CA823009F409CA67
:104950001092CC0437C9C63E2CE5D20709F45BC9D6
:10496000F8018281C73EFCE5DF0709F41DCAC83E95
:104970002CE5D20709F051C9882381F080916005A8
:1049800080FF81CA0E94251D6091600570916105BC
:1049900080916205909163050E94151CF801828147
:1049A000CB3EFCE5DF0709F042C9882319F190915D
:1049B0006105892F8B7F92FF8460809361056091F0
:1049C00060057091610580916205909163050E9478
:1049D000151C8091610582FB882780F91F928F93B7
:1049E00083E594E09F938F930E9459070F900F9057
:1049F0000F900F90F8018281C13FFCE5DF0709F0BD
:104A00002FC98823B1F080916105982F96959695CE
:104A100096958091620583708295880F807E892BA0
:104A2000843608F033CA90E00196809304010E9416
:104A30001B1CF8018281C03FFCE5DF0709F02FC98C
:104A4000882309F42CC980916205982F9695969534
:104A50009695809163058295880F807E892B84319D
:104A600008F41CCA8A500CCAC631DC4509F07DCC5A
:104A70008091CE04811144CC89E20E9464102CCC38
:104A8000C1309CE5D90709F43DCCCE3DECE5DE070D
:104A900009F459CCC115DC4509F067CC0E94111707
:104AA000EFEFF4E32CE0E150F0402040E1F700C0EC
:104AB00000005A9887E797E79093010880930008D1
:104AC0000E94200A1F93CF93DF938091D604807FAA
:104AD000A9F48091D304882389F080910805D091AE
:104AE000D7046091D1047091D204A091D404B09104
:104AF000D504C62FC72316E0D81304C0DF91CF9189
:104B00001F91089590E0109711F0CF3F19F401968E
:104B10008770F2CF189F9001199F300D1124F90171
:104B2000E852FB4F41814713F2CF40814613EFCF4C
:104B300042814111ECCF438154814A1B5B0B483CBD
:104B4000510528F78091D6048F7080618093D60438
:104B5000F901E352FB4F80818F708061808381ED8A
:104B600094E00E94C51DDF91CF911F910C94BE0A65
:104B7000AF92BF92CF92DF92EF92FF920F931F936B
:104B8000CF93DF93CDB7DEB761970FB6F894DEBF52
:104B90000FBECDBF8C0185E0F801DE011D960190AE
:104BA0000D928A95E1F7F80180819181E28021EDF3
:104BB000A22E24E0B22E6091D4047091D504611528
:104BC000710509F43EC13091D1044091D204232FE4
:104BD00024232F3F09F435C1C380D480F090D3043F
:104BE000F601E61BF70BFF2009F4FBC02091D60469
:104BF000522F507FE83CF10508F0BBC0511178C03E
:104C0000FE2C491321C038131FC0E1101DC02F70A6
:104C100020612093D604C5010E94C51D8091D60451
:104C2000F80185838F2D61960FB6F894DEBF0FBE15
:104C3000CDBFDF91CF911F910F91FF90EF90DF904B
:104C4000CF90BF90AF900895CD2829F0282F292329
:104C50002F3F09F014C120E0F22FF170DF2E20FF6A
:104C60003DC0209108054091D70456E0241315C09B
:104C70008D879E878D859E850E947A0D292F22958E
:104C80002F702230F8F0243020F59F70F9F0F801F1
:104C90009581907FD9F4D12C1FC030E0529FF00154
:104CA000539FF00D1124E852FB4F6181961306C00B
:104CB0006081861303C06281E61210C02F5F3F4FF0
:104CC0002770D4CF9F7011F0882329F3805E88303D
:104CD00010F3C8010E94C51DFD2CA4CFEE2009F4DD
:104CE000A1CF8091D60481608093D604F12C9ACF15
:104CF000491312C0381310C0E1100EC0F80125830B
:104D0000C8010E94C51D86E0F801A1EDB4E0019044
:104D10000D928A95E1F786CF8D879E878D859E853A
:104D20000E94840D882309F1EE20F9F08091D604C9
:104D3000803270F02091D1043091D20438872F83D3
:104D40001986DB86CA868C87CE0107960E94C51D10
:104D500086E0F801A1EDB4E001900D928A95E1F7AB
:104D60000E946225FF24F3945DCFC8010E94C51DF7
:104D7000F9CF51110AC081ED94E00E94C51D86E073
:104D8000F50111928A95E9F7B1CF49130FC0381395
:104D90000DC0E1100BC0F8012583C8010E94C51D9C
:104DA00086E0F50111928A95E9F73CCF8D879E87C1
:104DB0008D859E850E94840D8823B9F2EE20A9F28C
:104DC0008091D604803220F22091D1043091D20417
:104DD0003A8329831B82DD82CC828E83CE010196A9
:104DE000B5CFE83CF105E0F6FE2CEE2009F4BDCF8E
:104DF000491316C0381314C08091D60480FD83CFA8
:104E0000982F907F09F47FCFF8018583903F09F4B4
:104E100077CF982F907F905F8F70892B858370CF8D
:104E20008D879E878D859E850E94840D811190CFF0
:104E30008091D60481608093D604C8010E94C51D6C
:104E4000F1CEEE2009F491CF8D879E878D859E85CA
:104E50000E94840DF82E882309F487CF86E0F8019C
:104E6000A1EDB4E001900D928A95E1F78091D10413
:104E70009091D2040E947A0D0E946225D3CE21E047
:104E80002E25EACE1F93CF93DF93CDB7DEB767977A
:104E90000FB6F894DEBF0FBECDBF4B8B5C8B6D8B16
:104EA0007E8B8F8B1A8A198A85E0FE017396DE014C
:104EB0001D9601900D928A95E1F786E0FE013D96E0
:104EC000DE01179601900D928A95E1F7CE010796C3
:104ED0000E94B825882389F016E0809108059091FA
:104EE000D704891349C067960FB6F894DEBF0FBE8A
:104EF000CDBFDF91CF911F91089586E0FE013796D7
:104F0000DE01119601900D928A95E1F78A859B85C5
:104F1000892B11F38F81988589238F3FE9F22091A6
:104F2000D70430E0C90101968770992740910805A0
:104F30004817190671F40E9411171092D7041092A5
:104F4000080586E0E1EDF4E0DF011D928A95E9F7BE
:104F5000C3CF96E0929FD001939FB00D1124A85229
:104F6000BB4FFE01319601900D929A95E1F7809327
:104F7000D7040E94BE0AB0CF819FC001112488527D
:104F80009B4F0E94B825882309F4ADCF8091080576
:104F900090E0019687709927809308059ECF8F92A5
:104FA0009F92AF92BF92EF92FF920F931F93CF9376
:104FB000DF93EC017B01042F8091350680FF10C048
:104FC00082E0413009F481E01F928F9387EB93E0F8
:104FD0009F938F930E9459070F900F900F900F90FF
:104FE0008090450590904605A0904705B0904805F3
:104FF0000E94111760E070E0CB010E94DF0F86E095
:10500000080280011124CE15DF05A9F40E941117B2
:105010008092450590924605A0924705B0924805BA
:10502000DF91CF911F910F91FF90EF90BF90AF90C4
:105030009F908F900895CE010E94C51DC00FD11F73
:10504000E2CF1F920F920FB60F9211242F933F932E
:105050004F935F936F937F938F939F93AF93BF9380
:10506000CF93DF93EF93FF93D091E900DF708091AE
:10507000EC00C82FC17080FDC0E81092E90080915B
:10508000F000877F8093F00078940E943F17109281
:10509000E9008091F00088608093F000CD2BCF7004
:1050A000C093E900FF91EF91DF91CF91BF91AF9154
:1050B0009F918F917F916F915F914F913F912F9130
:1050C0000F900FBE0F901F9018951F920F920FB662
:1050D0000F9211242F933F934F935F936F937F937E
:1050E0008F939F93AF93BF93EF93FF938091E100D2
:1050F00082FF15C08091E20082FF11C08091E10023
:105100008B7F8093E100209102062F5F822F62E364
:105110000E941F32992309F4E5C020930206809172
:10512000DA0080FF28C08091D80080FF24C08091E1
:10513000DA008E7F8093DA008091D90080FF08C169
:1051400080E189BD82E189BD09B400FEFDCF81E027
:10515000809329068CEE97E00E94C006809103069A
:10516000811109C00E9462070E942D088091E2000F
:1051700084608093E2008091E10080FF25C08091EF
:10518000E20080FF21C08091E2008E7F8093E200E8
:105190008091E20080618093E2008091D80080627B
:1051A0008093D80019BC85E08093290684EF97E0AE
:1051B0000E94C00682E0809328060E94550B8091D1
:1051C0006F00826080936F008091E10084FF46C091
:1051D0008091E20084FF42C080E189BD82E189BD07
:1051E00089B5982F917080FFFBCF8091D8008F7D7B
:1051F0008093D8008091E1008F7E8093E1008091C0
:10520000E2008F7E8093E2008091E20081608093D3
:10521000E20080912A06882309F4A4C084E08093E8
:10522000290688EF97E00E94C0060E9411170E948D
:10523000F40A0E94A80D9091290681E0943009F0AB
:1052400080E0809328060E94550B80916F008D7F2F
:1052500080936F000E94F40A0E94A80D8091E100E3
:1052600083FF2FC08091E20083FF2BC08091E1007B
:10527000877F8093E10082E08093290610922A06BE
:105280008091E1008E7F8093E1008091E2008E7F2B
:105290008093E2008091E20080618093E20042E02E
:1052A00060E080E00E94FB078091F00088608093BE
:1052B000F0008CEF97E00E94C006109228060E9432
:1052C000550BFF91EF91BF91AF919F918F917F917E
:1052D0006F915F914F913F912F910F900FBE0F9063
:1052E0001F9018951092020680910106882309F4F8
:1052F00016CF809129068430C1F49091E9009F7007
:105300002091EC00822F817020FD80E8892B95E0B0
:105310009093E9009091EB0090FF04C09091EE0013
:1053200097FD08C08F708093E90010920106F7CEB8
:105330001092F1009091E80095FDFACF9091E8006D
:1053400090FFF0CF9091E8009E779093E800EACF2D
:1053500019BC1092290680EF97E00E94C0061092B7
:10536000030609CF8091E30087FD93E0909329061F
:1053700058CFCDB7DEB7CE55D1090FB6F894DEBF02
:105380000FBECDBF84B7877F84BF0FB6F894A895B2
:1053900080916000886180936000109260000FBE71
:1053A00080E890E00FB6F8948093610090936100DC
:1053B0000FBE109228060E94550B85B7806885BFE6
:1053C00085B7806885BF0E9462070E942D08809182
:1053D000E20084608093E20085EA91E190938D0180
:1053E00080938C017894809129068823A1F01091F4
:1053F000E9001F709091EC00892F817090FD80E88A
:10540000182B1092E9008091E80083FD0E943F175D
:105410001F701093E90082E084BD93E095BD9AEF80
:1054200097BD80936E00579A6E9A269A5F987698E9
:105430002E9883E297E09F938F930E945907229AB8
:10544000269A879A219A2E988F9829980E94F40D6F
:105450002AE22A95F1F700C08CE197E09F938F93A1
:105460000E94590781E197E09F938F930E9459070B
:105470008E9A869A219A229A8E9A29982A988AE058
:1054800097E09F938F930E94590781B3806381BBFC
:1054900085B1806385B98BB183618BB9469A0E94CF
:1054A000400A90935F0580935E058FEF9FE00E9416
:1054B00018158FEF9FE00E9418158FEF9FE00E9454
:1054C00018150FB6F894DEBF0FBECDBF10E100E097
:1054D0000E94FE0D8095082B5AE25A95F1F700C004
:1054E0001150B1F790E080E00E94181590E080E044
:1054F0000E94181590E080E00E94181570E1F72EC8
:105500000E94FE0D182B6AE26A95F1F700C0FA942A
:10551000F110F6CF102350E040E061E0812F0E94AF
:105520002E1590935D0580935C0550E040E060E0AF
:10553000812F0E942E15F82E092F80935A059093E3
:105540005B054AE050E06FEF70E0CE0101960E94EB
:10555000B73250915C0540915D058F2D902F8F3FA4
:10556000AFE09A0714F08EEF9FE00196252F342FBD
:10557000281739070CF49C016901C81AD90A760169
:10558000EE0CFF1CEE0CFF1C57EF652E55E0752E40
:10559000F30165E0A62EB12CC701B5010E942B32A4
:1055A000C901861B970B81939193EC18FD08B6E017
:1055B000E130FB0789F78FEFC82E85E0D82E97EDF5
:1055C000E92E95E0F92E04E0412F602FF60192912B
:1055D00082916F010E941D165701F0E1AF0EB11CC0
:1055E000F70168E081919191D5014D915D915D0147
:1055F0009F0122503109842B952BD9018D939C93C7
:10560000615081F70150B0E1EB1AF1080111DCCFD4
:10561000F7EAEF2EF5E0FF2E45ED59E0D70187E0E0
:1056200090E0412E512C88248394912C5201082E15
:1056300002C0B594A7940A94E2F7E1E0AE22BB243D
:10564000BA0130E020E0FB01C590D490CD2891F064
:10565000A114B10479F06401022E02C0CC0CDD1C4F
:105660000A94E2F7ED91FC911197EC29FD2911962E
:10567000FC93EE932F5F3F4F6E5F7F4F2C303105D1
:1056800011F701971296485E5F4F8F3F980771F6AA
:105690009E012F5F3F4F6D963FAF2EAF6D97E7EFA7
:1056A000CE2EE5E0DE2E590100E0F70148E004309F
:1056B00009F08AC1A70160E0812F0E942E15D50153
:1056C0008D939D935D01A70161E0812F0E942E15AE
:1056D000F601819391936F01F0E1EF0EF11C0F5FE2
:1056E000053019F7912C00E065E0E62EF12C70EF03
:1056F000872EA92CB12C6701CA18DB08802F002E39
:10570000000C990B8C159D050CF46DC184E0382EAE
:10571000391825E0C216D10409F05FC22FEF3FE02F
:10572000D3018D919D913D016D96EEADFFAD6D97CD
:10573000419151916D96FFAFEEAF6D97840F951F1C
:1057400097FD019695958795805A9F4FF301329763
:10575000811540E1940708F44FC23183208351E062
:10576000651656E07506E1F60E94400A20915E0536
:1057700030915F05821B930B90935F0580935E05CC
:10578000559A5D9A209A289AE5E6F5E0A9E7B5E0F2
:10579000119211921D921D9265E0E537F607C1F74F
:1057A00090E080E00E9467328C3E9E4F11F00E9494
:1057B000601D8091350681608093350690E080E021
:1057C0000E9467328C3E9E4F11F00E94601D88E15E
:1057D00090E00E9461326093600570936105809350
:1057E000620590936305209161052695269526957F
:1057F0003091620533703295330F307E232B209326
:105800000401672B682B692B11F02111F8C10E944C
:10581000D41C5A98529A80912806813011F40E9423
:10582000000B8091350680FF44C089E797E09F9385
:105830008F930E945907809135060F900F9080FF3B
:1058400038C084E697E09F938F930E945907809118
:1058500035060F900F9080FF2CC0809160058170FD
:105860001F928F9389E497E09F938F930E9459072B
:10587000809135060F900F900F900F9080FF19C008
:1058800080916005982F96959695969580916105E3
:1058900083708295880F807E892B1F928F9380E37F
:1058A00097E09F938F930E9459070F900F900F904E
:1058B0000F90539A90E080E00E9467328C3E9E4F9A
:1058C00011F00E94601D82E090E00E9459328093A6
:1058D00035060E940317909376058093750583E043
:1058E00090E00E945932682F70E090E080E00E94C2
:1058F000451086E091E0909378058093770580913C
:105900008100886080938100809181008160809314
:1059100081008FB7F89493E09093890090ED909375
:1059200088008FBF8BED97E00E94C0062091750123
:10593000309176016F963FAF2EAF6F978091290619
:10594000853009F45FC10E94CA1A57E9652E55E0F7
:10595000752E69E7462E65E0562E10E000E06C9645
:105960000FAF6C97D201ED90FD902D01F301A19046
:10597000B1903F01AE14BF0409F05BC10F5F1F4F30
:105980000830110561F78FEF67968FAF67976896BC
:105990008FAF689769961FAE69970E94400A816031
:1059A000782F6B969FAF8EAF6B9767964FAD6797CB
:1059B00068965FAD689769966FAD69976B968FAD86
:1059C0006B970E94422778C121913191DF01129794
:1059D0008685978580959095822393238D939C93BC
:1059E000415091F767CE54E0880F991F5A95E1F71F
:1059F000FC01E955FA4F88E021913191232B09F000
:105A000098C48150C9F755245394500E09C0AE0173
:105A10004F5F5F4F652D8FEF850D0E94D316539416
:105A20005C141D04A4F3482D95014203F001439F2B
:105A3000F00D1124E951FA4F88E011921192815032
:105A4000E1F7939456CE880F991FFC01E950FA4F65
:105A5000A1E0B0E0AC0FBD1F8A0F9B1F40815181B8
:105A6000FC0180819181481B590B241735070CF4E8
:105A7000B2C0A9016F5F9A01862F062E000C990B08
:105A80008C159D0504F3232B09F448CEF32C402EEE
:105A9000512C8F2D0F2C000C990B481659060CF425
:105AA000A1C05201AA0CBB1CF501E950FA4F20819C
:105AB0003181E1E0F0E0EC0FFD1FEA0DFB1D80817C
:105AC0009181820F931F97FD019695958795FFEF22
:105AD0004F1A5F0A4201880C991CF401E950FA4FF1
